{
  "_format": "hh-sol-artifact-1",
  "contractName": "ZeraHubCollection",
  "sourceName": "contracts/ZeraHubCollection.sol",
  "abi": [
    {
      "anonymous": false,
      "inputs": [
        {
          "indexed": false,
          "internalType": "string",
          "name": "collectionid",
          "type": "string"
        },
        {
          "indexed": false,
          "internalType": "address",
          "name": "oldOwner",
          "type": "address"
        },
        {
          "indexed": false,
          "internalType": "address",
          "name": "newOwner",
          "type": "address"
        }
      ],
      "name": "CollectionOwnerUpdated",
      "type": "event"
    },
    {
      "anonymous": false,
      "inputs": [
        {
          "indexed": false,
          "internalType": "string",
          "name": "collectionId",
          "type": "string"
        },
        {
          "indexed": false,
          "internalType": "uint256",
          "name": "oldPrice",
          "type": "uint256"
        },
        {
          "indexed": false,
          "internalType": "uint256",
          "name": "newPrice",
          "type": "uint256"
        }
      ],
      "name": "CollectionPriceUpdated",
      "type": "event"
    },
    {
      "anonymous": false,
      "inputs": [
        {
          "indexed": false,
          "internalType": "string",
          "name": "collectionId",
          "type": "string"
        },
        {
          "indexed": false,
          "internalType": "address",
          "name": "owner",
          "type": "address"
        },
        {
          "indexed": false,
          "internalType": "uint256",
          "name": "price",
          "type": "uint256"
        }
      ],
      "name": "NewCollection",
      "type": "event"
    },
    {
      "inputs": [
        {
          "internalType": "string",
          "name": "",
          "type": "string"
        }
      ],
      "name": "collections",
      "outputs": [
        {
          "internalType": "address",
          "name": "owner",
          "type": "address"
        },
        {
          "internalType": "uint256",
          "name": "price",
          "type": "uint256"
        },
        {
          "internalType": "bool",
          "name": "exists",
          "type": "bool"
        }
      ],
      "stateMutability": "view",
      "type": "function"
    },
    {
      "inputs": [
        {
          "internalType": "string",
          "name": "_collectionId",
          "type": "string"
        }
      ],
      "name": "getCollection",
      "outputs": [
        {
          "components": [
            {
              "internalType": "address",
              "name": "owner",
              "type": "address"
            },
            {
              "internalType": "uint256",
              "name": "price",
              "type": "uint256"
            },
            {
              "internalType": "bool",
              "name": "exists",
              "type": "bool"
            }
          ],
          "internalType": "struct ZeraHubCollection.Collection",
          "name": "",
          "type": "tuple"
        }
      ],
      "stateMutability": "view",
      "type": "function"
    },
    {
      "inputs": [
        {
          "internalType": "string",
          "name": "_collectionId",
          "type": "string"
        },
        {
          "internalType": "uint256",
          "name": "_price",
          "type": "uint256"
        }
      ],
      "name": "registerCollection",
      "outputs": [],
      "stateMutability": "nonpayable",
      "type": "function"
    },
    {
      "inputs": [
        {
          "internalType": "string",
          "name": "_collectionId",
          "type": "string"
        },
        {
          "internalType": "uint256",
          "name": "_newPrice",
          "type": "uint256"
        }
      ],
      "name": "setPrice",
      "outputs": [],
      "stateMutability": "nonpayable",
      "type": "function"
    },
    {
      "inputs": [
        {
          "internalType": "string",
          "name": "_collectionId",
          "type": "string"
        },
        {
          "internalType": "address",
          "name": "_newOwner",
          "type": "address"
        }
      ],
      "name": "transferOwnership",
      "outputs": [],
      "stateMutability": "nonpayable",
      "type": "function"
    }
  ],
  "bytecode": "0x608060405234801561001057600080fd5b50610eef806100206000396000f3fe608060405234801561001057600080fd5b50600436106100575760003560e01c80630ff79b331461005c57806322e011921461008c5780635722f016146100a857806366e54d7b146100c4578063c0e793c2146100f6575b600080fd5b61007660048036038101906100719190610951565b610112565b6040516100839190610a51565b60405180910390f35b6100a660048036038101906100a19190610a98565b610233565b005b6100c260048036038101906100bd9190610a98565b6103db565b005b6100de60048036038101906100d99190610951565b61054f565b6040516100ed93929190610b21565b60405180910390f35b610110600480360381019061010b9190610b84565b6105bc565b005b61011a6107be565b60008260405161012a9190610c5a565b908152602001604051809103902060020160009054906101000a900460ff16610188576040517f08c379a000000000000000000000000000000000000000000000000000000000815260040161017f90610cce565b60405180910390fd5b6000826040516101989190610c5a565b90815260200160405180910390206040518060600160405290816000820160009054906101000a900473ffffffffffffffffffffffffffffffffffffffff1673ffffffffffffffffffffffffffffffffffffffff1673ffffffffffffffffffffffffffffffffffffffff168152602001600182015481526020016002820160009054906101000a900460ff1615151515815250509050919050565b3373ffffffffffffffffffffffffffffffffffffffff1660008360405161025a9190610c5a565b908152602001604051809103902060000160009054906101000a900473ffffffffffffffffffffffffffffffffffffffff1673ffffffffffffffffffffffffffffffffffffffff16146102e2576040517f08c379a00000000000000000000000000000000000000000000000000000000081526004016102d990610d3a565b60405180910390fd5b6000826040516102f29190610c5a565b908152602001604051809103902060020160009054906101000a900460ff16610350576040517f08c379a000000000000000000000000000000000000000000000000000000000815260040161034790610cce565b60405180910390fd5b600080836040516103619190610c5a565b9081526020016040518091039020600101549050816000846040516103869190610c5a565b9081526020016040518091039020600101819055507f13aa5f6acb2ecb9da9cf8cd6a0d72d4c030c566aafb431aea14dca75fe318f568382846040516103ce93929190610d93565b60405180910390a1505050565b6000826040516103eb9190610c5a565b908152602001604051809103902060020160009054906101000a900460ff161561044a576040517f08c379a000000000000000000000000000000000000000000000000000000000815260040161044190610e1d565b60405180910390fd5b60405180606001604052803373ffffffffffffffffffffffffffffffffffffffff1681526020018281526020016001151581525060008360405161048e9190610c5a565b908152602001604051809103902060008201518160000160006101000a81548173ffffffffffffffffffffffffffffffffffffffff021916908373ffffffffffffffffffffffffffffffffffffffff1602179055506020820151816001015560408201518160020160006101000a81548160ff0219169083151502179055509050507feaadc57d4a5a18d83b68ff0bfc0b39b3f523b1252325aa8733b4367f32f1dfef82338360405161054393929190610e3d565b60405180910390a15050565b6000818051602081018201805184825260208301602085012081835280955050505050506000915090508060000160009054906101000a900473ffffffffffffffffffffffffffffffffffffffff16908060010154908060020160009054906101000a900460ff16905083565b3373ffffffffffffffffffffffffffffffffffffffff166000836040516105e39190610c5a565b908152602001604051809103902060000160009054906101000a900473ffffffffffffffffffffffffffffffffffffffff1673ffffffffffffffffffffffffffffffffffffffff161461066b576040517f08c379a000000000000000000000000000000000000000000000000000000000815260040161066290610d3a565b60405180910390fd5b60008260405161067b9190610c5a565b908152602001604051809103902060020160009054906101000a900460ff166106d9576040517f08c379a00000000000000000000000000000000000000000000000000000000081526004016106d090610cce565b60405180910390fd5b600080836040516106ea9190610c5a565b908152602001604051809103902060000160009054906101000a900473ffffffffffffffffffffffffffffffffffffffff1690508160008460405161072f9190610c5a565b908152602001604051809103902060000160006101000a81548173ffffffffffffffffffffffffffffffffffffffff021916908373ffffffffffffffffffffffffffffffffffffffff1602179055507f44a2947c1a6308c2bf0438bda4449f6ce90cc3d27d14df8b19d505373dea3fab8382846040516107b193929190610e7b565b60405180910390a1505050565b6040518060600160405280600073ffffffffffffffffffffffffffffffffffffffff168152602001600081526020016000151581525090565b6000604051905090565b600080fd5b600080fd5b600080fd5b600080fd5b6000601f19601f8301169050919050565b7f4e487b7100000000000000000000000000000000000000000000000000000000600052604160045260246000fd5b61085e82610815565b810181811067ffffffffffffffff8211171561087d5761087c610826565b5b80604052505050565b60006108906107f7565b905061089c8282610855565b919050565b600067ffffffffffffffff8211156108bc576108bb610826565b5b6108c582610815565b9050602081019050919050565b82818337600083830152505050565b60006108f46108ef846108a1565b610886565b9050828152602081018484840111156109105761090f610810565b5b61091b8482856108d2565b509392505050565b600082601f8301126109385761093761080b565b5b81356109488482602086016108e1565b91505092915050565b60006020828403121561096757610966610801565b5b600082013567ffffffffffffffff81111561098557610984610806565b5b61099184828501610923565b91505092915050565b600073ffffffffffffffffffffffffffffffffffffffff82169050919050565b60006109c58261099a565b9050919050565b6109d5816109ba565b82525050565b6000819050919050565b6109ee816109db565b82525050565b60008115159050919050565b610a09816109f4565b82525050565b606082016000820151610a2560008501826109cc565b506020820151610a3860208501826109e5565b506040820151610a4b6040850182610a00565b50505050565b6000606082019050610a666000830184610a0f565b92915050565b610a75816109db565b8114610a8057600080fd5b50565b600081359050610a9281610a6c565b92915050565b60008060408385031215610aaf57610aae610801565b5b600083013567ffffffffffffffff811115610acd57610acc610806565b5b610ad985828601610923565b9250506020610aea85828601610a83565b9150509250929050565b610afd816109ba565b82525050565b610b0c816109db565b82525050565b610b1b816109f4565b82525050565b6000606082019050610b366000830186610af4565b610b436020830185610b03565b610b506040830184610b12565b949350505050565b610b61816109ba565b8114610b6c57600080fd5b50565b600081359050610b7e81610b58565b92915050565b60008060408385031215610b9b57610b9a610801565b5b600083013567ffffffffffffffff811115610bb957610bb8610806565b5b610bc585828601610923565b9250506020610bd685828601610b6f565b9150509250929050565b600081519050919050565b600081905092915050565b60005b83811015610c14578082015181840152602081019050610bf9565b83811115610c23576000848401525b50505050565b6000610c3482610be0565b610c3e8185610beb565b9350610c4e818560208601610bf6565b80840191505092915050565b6000610c668284610c29565b915081905092915050565b600082825260208201905092915050565b7f5a6572614875624e6f7445786973747300000000000000000000000000000000600082015250565b6000610cb8601083610c71565b9150610cc382610c82565b602082019050919050565b60006020820190508181036000830152610ce781610cab565b9050919050565b7f5a6572614875624e6f744f776e61626c65000000000000000000000000000000600082015250565b6000610d24601183610c71565b9150610d2f82610cee565b602082019050919050565b60006020820190508181036000830152610d5381610d17565b9050919050565b6000610d6582610be0565b610d6f8185610c71565b9350610d7f818560208601610bf6565b610d8881610815565b840191505092915050565b60006060820190508181036000830152610dad8186610d5a565b9050610dbc6020830185610b03565b610dc96040830184610b03565b949350505050565b7f5a657261487562416c7265616479457869737473000000000000000000000000600082015250565b6000610e07601483610c71565b9150610e1282610dd1565b602082019050919050565b60006020820190508181036000830152610e3681610dfa565b9050919050565b60006060820190508181036000830152610e578186610d5a565b9050610e666020830185610af4565b610e736040830184610b03565b949350505050565b60006060820190508181036000830152610e958186610d5a565b9050610ea46020830185610af4565b610eb16040830184610af4565b94935050505056fea2646970667358221220b01e7bdb985d196f34d0d3ee7b637122783e2288ee6422638527ba1bc9afefc064736f6c634300080c0033",
  "linkReferences": {},
  "deployedLinkReferences": {}
}